{
  "_format": "hh-sol-artifact-1",
  "contractName": "AVAXGods",
  "sourceName": "contracts/AvaxGods.sol",
  "abi": [
    {
      "inputs": [
        {
          "internalType": "string",
          "name": "_metadataURI",
          "type": "string"
        }
      ],
      "stateMutability": "nonpayable",
      "type": "constructor"
    },
    {
      "inputs": [
        {
          "internalType": "address",
          "name": "sender",
          "type": "address"
        },
        {
          "internalType": "uint256",
          "name": "balance",
          "type": "uint256"
        },
        {
          "internalType": "uint256",
          "name": "needed",
          "type": "uint256"
        },
        {
          "internalType": "uint256",
          "name": "tokenId",
          "type": "uint256"
        }
      ],
      "name": "ERC1155InsufficientBalance",
      "type": "error"
    },
    {
      "inputs": [
        {
          "internalType": "address",
          "name": "approver",
          "type": "address"
        }
      ],
      "name": "ERC1155InvalidApprover",
      "type": "error"
    },
    {
      "inputs": [
        {
          "internalType": "uint256",
          "name": "idsLength",
          "type": "uint256"
        },
        {
          "internalType": "uint256",
          "name": "valuesLength",
          "type": "uint256"
        }
      ],
      "name": "ERC1155InvalidArrayLength",
      "type": "error"
    },
    {
      "inputs": [
        {
          "internalType": "address",
          "name": "operator",
          "type": "address"
        }
      ],
      "name": "ERC1155InvalidOperator",
      "type": "error"
    },
    {
      "inputs": [
        {
          "internalType": "address",
          "name": "receiver",
          "type": "address"
        }
      ],
      "name": "ERC1155InvalidReceiver",
      "type": "error"
    },
    {
      "inputs": [
        {
          "internalType": "address",
          "name": "sender",
          "type": "address"
        }
      ],
      "name": "ERC1155InvalidSender",
      "type": "error"
    },
    {
      "inputs": [
        {
          "internalType": "address",
          "name": "operator",
          "type": "address"
        },
        {
          "internalType": "address",
          "name": "owner",
          "type": "address"
        }
      ],
      "name": "ERC1155MissingApprovalForAll",
      "type": "error"
    },
    {
      "inputs": [
        {
          "internalType": "address",
          "name": "owner",
          "type": "address"
        }
      ],
      "name": "OwnableInvalidOwner",
      "type": "error"
    },
    {
      "inputs": [
        {
          "internalType": "address",
          "name": "account",
          "type": "address"
        }
      ],
      "name": "OwnableUnauthorizedAccount",
      "type": "error"
    },
    {
      "anonymous": false,
      "inputs": [
        {
          "indexed": true,
          "internalType": "address",
          "name": "account",
          "type": "address"
        },
        {
          "indexed": true,
          "internalType": "address",
          "name": "operator",
          "type": "address"
        },
        {
          "indexed": false,
          "internalType": "bool",
          "name": "approved",
          "type": "bool"
        }
      ],
      "name": "ApprovalForAll",
      "type": "event"
    },
    {
      "anonymous": false,
      "inputs": [
        {
          "indexed": false,
          "internalType": "string",
          "name": "battleName",
          "type": "string"
        },
        {
          "indexed": true,
          "internalType": "address",
          "name": "winner",
          "type": "address"
        },
        {
          "indexed": true,
          "internalType": "address",
          "name": "loser",
          "type": "address"
        }
      ],
      "name": "BattleEnded",
      "type": "event"
    },
    {
      "anonymous": false,
      "inputs": [
        {
          "indexed": true,
          "internalType": "string",
          "name": "battleName",
          "type": "string"
        },
        {
          "indexed": true,
          "internalType": "bool",
          "name": "isFirstMove",
          "type": "bool"
        }
      ],
      "name": "BattleMove",
      "type": "event"
    },
    {
      "anonymous": false,
      "inputs": [
        {
          "indexed": false,
          "internalType": "string",
          "name": "battleName",
          "type": "string"
        },
        {
          "indexed": true,
          "internalType": "address",
          "name": "player1",
          "type": "address"
        },
        {
          "indexed": true,
          "internalType": "address",
          "name": "player2",
          "type": "address"
        }
      ],
      "name": "NewBattle",
      "type": "event"
    },
    {
      "anonymous": false,
      "inputs": [
        {
          "indexed": true,
          "internalType": "address",
          "name": "owner",
          "type": "address"
        },
        {
          "indexed": false,
          "internalType": "uint256",
          "name": "id",
          "type": "uint256"
        },
        {
          "indexed": false,
          "internalType": "uint256",
          "name": "attackStrength",
          "type": "uint256"
        },
        {
          "indexed": false,
          "internalType": "uint256",
          "name": "defenseStrength",
          "type": "uint256"
        }
      ],
      "name": "NewGameToken",
      "type": "event"
    },
    {
      "anonymous": false,
      "inputs": [
        {
          "indexed": true,
          "internalType": "address",
          "name": "owner",
          "type": "address"
        },
        {
          "indexed": false,
          "internalType": "string",
          "name": "name",
          "type": "string"
        }
      ],
      "name": "NewPlayer",
      "type": "event"
    },
    {
      "anonymous": false,
      "inputs": [
        {
          "indexed": true,
          "internalType": "address",
          "name": "previousOwner",
          "type": "address"
        },
        {
          "indexed": true,
          "internalType": "address",
          "name": "newOwner",
          "type": "address"
        }
      ],
      "name": "OwnershipTransferred",
      "type": "event"
    },
    {
      "anonymous": false,
      "inputs": [
        {
          "indexed": false,
          "internalType": "address[2]",
          "name": "damagedPlayers",
          "type": "address[2]"
        }
      ],
      "name": "RoundEnded",
      "type": "event"
    },
    {
      "anonymous": false,
      "inputs": [
        {
          "indexed": true,
          "internalType": "address",
          "name": "operator",
          "type": "address"
        },
        {
          "indexed": true,
          "internalType": "address",
          "name": "from",
          "type": "address"
        },
        {
          "indexed": true,
          "internalType": "address",
          "name": "to",
          "type": "address"
        },
        {
          "indexed": false,
          "internalType": "uint256[]",
          "name": "ids",
          "type": "uint256[]"
        },
        {
          "indexed": false,
          "internalType": "uint256[]",
          "name": "values",
          "type": "uint256[]"
        }
      ],
      "name": "TransferBatch",
      "type": "event"
    },
    {
      "anonymous": false,
      "inputs": [
        {
          "indexed": true,
          "internalType": "address",
          "name": "operator",
          "type": "address"
        },
        {
          "indexed": true,
          "internalType": "address",
          "name": "from",
          "type": "address"
        },
        {
          "indexed": true,
          "internalType": "address",
          "name": "to",
          "type": "address"
        },
        {
          "indexed": false,
          "internalType": "uint256",
          "name": "id",
          "type": "uint256"
        },
        {
          "indexed": false,
          "internalType": "uint256",
          "name": "value",
          "type": "uint256"
        }
      ],
      "name": "TransferSingle",
      "type": "event"
    },
    {
      "anonymous": false,
      "inputs": [
        {
          "indexed": false,
          "internalType": "string",
          "name": "value",
          "type": "string"
        },
        {
          "indexed": true,
          "internalType": "uint256",
          "name": "id",
          "type": "uint256"
        }
      ],
      "name": "URI",
      "type": "event"
    },
    {
      "inputs": [],
      "name": "CELESTION",
      "outputs": [
        {
          "internalType": "uint256",
          "name": "",
          "type": "uint256"
        }
      ],
      "stateMutability": "view",
      "type": "function"
    },
    {
      "inputs": [],
      "name": "DEVIL",
      "outputs": [
        {
          "internalType": "uint256",
          "name": "",
          "type": "uint256"
        }
      ],
      "stateMutability": "view",
      "type": "function"
    },
    {
      "inputs": [],
      "name": "FIREBIRD",
      "outputs": [
        {
          "internalType": "uint256",
          "name": "",
          "type": "uint256"
        }
      ],
      "stateMutability": "view",
      "type": "function"
    },
    {
      "inputs": [],
      "name": "GRIFFIN",
      "outputs": [
        {
          "internalType": "uint256",
          "name": "",
          "type": "uint256"
        }
      ],
      "stateMutability": "view",
      "type": "function"
    },
    {
      "inputs": [],
      "name": "KAMO",
      "outputs": [
        {
          "internalType": "uint256",
          "name": "",
          "type": "uint256"
        }
      ],
      "stateMutability": "view",
      "type": "function"
    },
    {
      "inputs": [],
      "name": "KUKULKAN",
      "outputs": [
        {
          "internalType": "uint256",
          "name": "",
          "type": "uint256"
        }
      ],
      "stateMutability": "view",
      "type": "function"
    },
    {
      "inputs": [],
      "name": "MAX_ATTACK_DEFEND_STRENGTH",
      "outputs": [
        {
          "internalType": "uint256",
          "name": "",
          "type": "uint256"
        }
      ],
      "stateMutability": "view",
      "type": "function"
    },
    {
      "inputs": [
        {
          "internalType": "uint8",
          "name": "_choice",
          "type": "uint8"
        },
        {
          "internalType": "string",
          "name": "_battleName",
          "type": "string"
        }
      ],
      "name": "attackOrDefendChoice",
      "outputs": [],
      "stateMutability": "nonpayable",
      "type": "function"
    },
    {
      "inputs": [
        {
          "internalType": "address",
          "name": "account",
          "type": "address"
        },
        {
          "internalType": "uint256",
          "name": "id",
          "type": "uint256"
        }
      ],
      "name": "balanceOf",
      "outputs": [
        {
          "internalType": "uint256",
          "name": "",
          "type": "uint256"
        }
      ],
      "stateMutability": "view",
      "type": "function"
    },
    {
      "inputs": [
        {
          "internalType": "address[]",
          "name": "accounts",
          "type": "address[]"
        },
        {
          "internalType": "uint256[]",
          "name": "ids",
          "type": "uint256[]"
        }
      ],
      "name": "balanceOfBatch",
      "outputs": [
        {
          "internalType": "uint256[]",
          "name": "",
          "type": "uint256[]"
        }
      ],
      "stateMutability": "view",
      "type": "function"
    },
    {
      "inputs": [],
      "name": "baseURI",
      "outputs": [
        {
          "internalType": "string",
          "name": "",
          "type": "string"
        }
      ],
      "stateMutability": "view",
      "type": "function"
    },
    {
      "inputs": [
        {
          "internalType": "string",
          "name": "",
          "type": "string"
        }
      ],
      "name": "battleInfo",
      "outputs": [
        {
          "internalType": "uint256",
          "name": "",
          "type": "uint256"
        }
      ],
      "stateMutability": "view",
      "type": "function"
    },
    {
      "inputs": [
        {
          "internalType": "uint256",
          "name": "",
          "type": "uint256"
        }
      ],
      "name": "battles",
      "outputs": [
        {
          "internalType": "enum AVAXGods.BattleStatus",
          "name": "battleStatus",
          "type": "uint8"
        },
        {
          "internalType": "bytes32",
          "name": "battleHash",
          "type": "bytes32"
        },
        {
          "internalType": "string",
          "name": "name",
          "type": "string"
        },
        {
          "internalType": "address",
          "name": "winner",
          "type": "address"
        }
      ],
      "stateMutability": "view",
      "type": "function"
    },
    {
      "inputs": [
        {
          "internalType": "string",
          "name": "_name",
          "type": "string"
        }
      ],
      "name": "createBattle",
      "outputs": [
        {
          "components": [
            {
              "internalType": "enum AVAXGods.BattleStatus",
              "name": "battleStatus",
              "type": "uint8"
            },
            {
              "internalType": "bytes32",
              "name": "battleHash",
              "type": "bytes32"
            },
            {
              "internalType": "string",
              "name": "name",
              "type": "string"
            },
            {
              "internalType": "address[2]",
              "name": "players",
              "type": "address[2]"
            },
            {
              "internalType": "uint8[2]",
              "name": "moves",
              "type": "uint8[2]"
            },
            {
              "internalType": "address",
              "name": "winner",
              "type": "address"
            }
          ],
          "internalType": "struct AVAXGods.Battle",
          "name": "",
          "type": "tuple"
        }
      ],
      "stateMutability": "nonpayable",
      "type": "function"
    },
    {
      "inputs": [
        {
          "internalType": "string",
          "name": "_name",
          "type": "string"
        }
      ],
      "name": "createRandomGameToken",
      "outputs": [],
      "stateMutability": "nonpayable",
      "type": "function"
    },
    {
      "inputs": [
        {
          "internalType": "uint256",
          "name": "id",
          "type": "uint256"
        }
      ],
      "name": "exists",
      "outputs": [
        {
          "internalType": "bool",
          "name": "",
          "type": "bool"
        }
      ],
      "stateMutability": "view",
      "type": "function"
    },
    {
      "inputs": [
        {
          "internalType": "uint256",
          "name": "",
          "type": "uint256"
        }
      ],
      "name": "gameTokens",
      "outputs": [
        {
          "internalType": "string",
          "name": "name",
          "type": "string"
        },
        {
          "internalType": "uint256",
          "name": "id",
          "type": "uint256"
        },
        {
          "internalType": "uint256",
          "name": "attackStrength",
          "type": "uint256"
        },
        {
          "internalType": "uint256",
          "name": "defenseStrength",
          "type": "uint256"
        }
      ],
      "stateMutability": "view",
      "type": "function"
    },
    {
      "inputs": [],
      "name": "getAllBattles",
      "outputs": [
        {
          "components": [
            {
              "internalType": "enum AVAXGods.BattleStatus",
              "name": "battleStatus",
              "type": "uint8"
            },
            {
              "internalType": "bytes32",
              "name": "battleHash",
              "type": "bytes32"
            },
            {
              "internalType": "string",
              "name": "name",
              "type": "string"
            },
            {
              "internalType": "address[2]",
              "name": "players",
              "type": "address[2]"
            },
            {
              "internalType": "uint8[2]",
              "name": "moves",
              "type": "uint8[2]"
            },
            {
              "internalType": "address",
              "name": "winner",
              "type": "address"
            }
          ],
          "internalType": "struct AVAXGods.Battle[]",
          "name": "",
          "type": "tuple[]"
        }
      ],
      "stateMutability": "view",
      "type": "function"
    },
    {
      "inputs": [],
      "name": "getAllPlayerTokens",
      "outputs": [
        {
          "components": [
            {
              "internalType": "string",
              "name": "name",
              "type": "string"
            },
            {
              "internalType": "uint256",
              "name": "id",
              "type": "uint256"
            },
            {
              "internalType": "uint256",
              "name": "attackStrength",
              "type": "uint256"
            },
            {
              "internalType": "uint256",
              "name": "defenseStrength",
              "type": "uint256"
            }
          ],
          "internalType": "struct AVAXGods.GameToken[]",
          "name": "",
          "type": "tuple[]"
        }
      ],
      "stateMutability": "view",
      "type": "function"
    },
    {
      "inputs": [],
      "name": "getAllPlayers",
      "outputs": [
        {
          "components": [
            {
              "internalType": "address",
              "name": "playerAddress",
              "type": "address"
            },
            {
              "internalType": "string",
              "name": "playerName",
              "type": "string"
            },
            {
              "internalType": "uint256",
              "name": "playerMana",
              "type": "uint256"
            },
            {
              "internalType": "uint256",
              "name": "playerHealth",
              "type": "uint256"
            },
            {
              "internalType": "bool",
              "name": "inBattle",
              "type": "bool"
            }
          ],
          "internalType": "struct AVAXGods.Player[]",
          "name": "",
          "type": "tuple[]"
        }
      ],
      "stateMutability": "view",
      "type": "function"
    },
    {
      "inputs": [
        {
          "internalType": "string",
          "name": "_name",
          "type": "string"
        }
      ],
      "name": "getBattle",
      "outputs": [
        {
          "components": [
            {
              "internalType": "enum AVAXGods.BattleStatus",
              "name": "battleStatus",
              "type": "uint8"
            },
            {
              "internalType": "bytes32",
              "name": "battleHash",
              "type": "bytes32"
            },
            {
              "internalType": "string",
              "name": "name",
              "type": "string"
            },
            {
              "internalType": "address[2]",
              "name": "players",
              "type": "address[2]"
            },
            {
              "internalType": "uint8[2]",
              "name": "moves",
              "type": "uint8[2]"
            },
            {
              "internalType": "address",
              "name": "winner",
              "type": "address"
            }
          ],
          "internalType": "struct AVAXGods.Battle",
          "name": "",
          "type": "tuple"
        }
      ],
      "stateMutability": "view",
      "type": "function"
    },
    {
      "inputs": [
        {
          "internalType": "string",
          "name": "_battleName",
          "type": "string"
        }
      ],
      "name": "getBattleMoves",
      "outputs": [
        {
          "internalType": "uint256",
          "name": "P1Move",
          "type": "uint256"
        },
        {
          "internalType": "uint256",
          "name": "P2Move",
          "type": "uint256"
        }
      ],
      "stateMutability": "view",
      "type": "function"
    },
    {
      "inputs": [
        {
          "internalType": "address",
          "name": "addr",
          "type": "address"
        }
      ],
      "name": "getPlayer",
      "outputs": [
        {
          "components": [
            {
              "internalType": "address",
              "name": "playerAddress",
              "type": "address"
            },
            {
              "internalType": "string",
              "name": "playerName",
              "type": "string"
            },
            {
              "internalType": "uint256",
              "name": "playerMana",
              "type": "uint256"
            },
            {
              "internalType": "uint256",
              "name": "playerHealth",
              "type": "uint256"
            },
            {
              "internalType": "bool",
              "name": "inBattle",
              "type": "bool"
            }
          ],
          "internalType": "struct AVAXGods.Player",
          "name": "",
          "type": "tuple"
        }
      ],
      "stateMutability": "view",
      "type": "function"
    },
    {
      "inputs": [
        {
          "internalType": "address",
          "name": "addr",
          "type": "address"
        }
      ],
      "name": "getPlayerToken",
      "outputs": [
        {
          "components": [
            {
              "internalType": "string",
              "name": "name",
              "type": "string"
            },
            {
              "internalType": "uint256",
              "name": "id",
              "type": "uint256"
            },
            {
              "internalType": "uint256",
              "name": "attackStrength",
              "type": "uint256"
            },
            {
              "internalType": "uint256",
              "name": "defenseStrength",
              "type": "uint256"
            }
          ],
          "internalType": "struct AVAXGods.GameToken",
          "name": "",
          "type": "tuple"
        }
      ],
      "stateMutability": "view",
      "type": "function"
    },
    {
      "inputs": [],
      "name": "getTotalSupply",
      "outputs": [
        {
          "internalType": "uint256",
          "name": "",
          "type": "uint256"
        }
      ],
      "stateMutability": "view",
      "type": "function"
    },
    {
      "inputs": [
        {
          "internalType": "address",
          "name": "account",
          "type": "address"
        },
        {
          "internalType": "address",
          "name": "operator",
          "type": "address"
        }
      ],
      "name": "isApprovedForAll",
      "outputs": [
        {
          "internalType": "bool",
          "name": "",
          "type": "bool"
        }
      ],
      "stateMutability": "view",
      "type": "function"
    },
    {
      "inputs": [
        {
          "internalType": "string",
          "name": "_name",
          "type": "string"
        }
      ],
      "name": "isBattle",
      "outputs": [
        {
          "internalType": "bool",
          "name": "",
          "type": "bool"
        }
      ],
      "stateMutability": "view",
      "type": "function"
    },
    {
      "inputs": [
        {
          "internalType": "address",
          "name": "addr",
          "type": "address"
        }
      ],
      "name": "isPlayer",
      "outputs": [
        {
          "internalType": "bool",
          "name": "",
          "type": "bool"
        }
      ],
      "stateMutability": "view",
      "type": "function"
    },
    {
      "inputs": [
        {
          "internalType": "address",
          "name": "addr",
          "type": "address"
        }
      ],
      "name": "isPlayerToken",
      "outputs": [
        {
          "internalType": "bool",
          "name": "",
          "type": "bool"
        }
      ],
      "stateMutability": "view",
      "type": "function"
    },
    {
      "inputs": [
        {
          "internalType": "string",
          "name": "_name",
          "type": "string"
        }
      ],
      "name": "joinBattle",
      "outputs": [
        {
          "components": [
            {
              "internalType": "enum AVAXGods.BattleStatus",
              "name": "battleStatus",
              "type": "uint8"
            },
            {
              "internalType": "bytes32",
              "name": "battleHash",
              "type": "bytes32"
            },
            {
              "internalType": "string",
              "name": "name",
              "type": "string"
            },
            {
              "internalType": "address[2]",
              "name": "players",
              "type": "address[2]"
            },
            {
              "internalType": "uint8[2]",
              "name": "moves",
              "type": "uint8[2]"
            },
            {
              "internalType": "address",
              "name": "winner",
              "type": "address"
            }
          ],
          "internalType": "struct AVAXGods.Battle",
          "name": "",
          "type": "tuple"
        }
      ],
      "stateMutability": "nonpayable",
      "type": "function"
    },
    {
      "inputs": [],
      "name": "owner",
      "outputs": [
        {
          "internalType": "address",
          "name": "",
          "type": "address"
        }
      ],
      "stateMutability": "view",
      "type": "function"
    },
    {
      "inputs": [
        {
          "internalType": "address",
          "name": "",
          "type": "address"
        }
      ],
      "name": "playerInfo",
      "outputs": [
        {
          "internalType": "uint256",
          "name": "",
          "type": "uint256"
        }
      ],
      "stateMutability": "view",
      "type": "function"
    },
    {
      "inputs": [
        {
          "internalType": "address",
          "name": "",
          "type": "address"
        }
      ],
      "name": "playerTokenInfo",
      "outputs": [
        {
          "internalType": "uint256",
          "name": "",
          "type": "uint256"
        }
      ],
      "stateMutability": "view",
      "type": "function"
    },
    {
      "inputs": [
        {
          "internalType": "uint256",
          "name": "",
          "type": "uint256"
        }
      ],
      "name": "players",
      "outputs": [
        {
          "internalType": "address",
          "name": "playerAddress",
          "type": "address"
        },
        {
          "internalType": "string",
          "name": "playerName",
          "type": "string"
        },
        {
          "internalType": "uint256",
          "name": "playerMana",
          "type": "uint256"
        },
        {
          "internalType": "uint256",
          "name": "playerHealth",
          "type": "uint256"
        },
        {
          "internalType": "bool",
          "name": "inBattle",
          "type": "bool"
        }
      ],
      "stateMutability": "view",
      "type": "function"
    },
    {
      "inputs": [
        {
          "internalType": "string",
          "name": "_battleName",
          "type": "string"
        }
      ],
      "name": "quitBattle",
      "outputs": [],
      "stateMutability": "nonpayable",
      "type": "function"
    },
    {
      "inputs": [
        {
          "internalType": "string",
          "name": "_name",
          "type": "string"
        },
        {
          "internalType": "string",
          "name": "_gameTokenName",
          "type": "string"
        }
      ],
      "name": "registerPlayer",
      "outputs": [],
      "stateMutability": "nonpayable",
      "type": "function"
    },
    {
      "inputs": [],
      "name": "renounceOwnership",
      "outputs": [],
      "stateMutability": "nonpayable",
      "type": "function"
    },
    {
      "inputs": [
        {
          "internalType": "address",
          "name": "from",
          "type": "address"
        },
        {
          "internalType": "address",
          "name": "to",
          "type": "address"
        },
        {
          "internalType": "uint256[]",
          "name": "ids",
          "type": "uint256[]"
        },
        {
          "internalType": "uint256[]",
          "name": "values",
          "type": "uint256[]"
        },
        {
          "internalType": "bytes",
          "name": "data",
          "type": "bytes"
        }
      ],
      "name": "safeBatchTransferFrom",
      "outputs": [],
      "stateMutability": "nonpayable",
      "type": "function"
    },
    {
      "inputs": [
        {
          "internalType": "address",
          "name": "from",
          "type": "address"
        },
        {
          "internalType": "address",
          "name": "to",
          "type": "address"
        },
        {
          "internalType": "uint256",
          "name": "id",
          "type": "uint256"
        },
        {
          "internalType": "uint256",
          "name": "value",
          "type": "uint256"
        },
        {
          "internalType": "bytes",
          "name": "data",
          "type": "bytes"
        }
      ],
      "name": "safeTransferFrom",
      "outputs": [],
      "stateMutability": "nonpayable",
      "type": "function"
    },
    {
      "inputs": [
        {
          "internalType": "address",
          "name": "operator",
          "type": "address"
        },
        {
          "internalType": "bool",
          "name": "approved",
          "type": "bool"
        }
      ],
      "name": "setApprovalForAll",
      "outputs": [],
      "stateMutability": "nonpayable",
      "type": "function"
    },
    {
      "inputs": [
        {
          "internalType": "string",
          "name": "newuri",
          "type": "string"
        }
      ],
      "name": "setURI",
      "outputs": [],
      "stateMutability": "nonpayable",
      "type": "function"
    },
    {
      "inputs": [
        {
          "internalType": "bytes4",
          "name": "interfaceId",
          "type": "bytes4"
        }
      ],
      "name": "supportsInterface",
      "outputs": [
        {
          "internalType": "bool",
          "name": "",
          "type": "bool"
        }
      ],
      "stateMutability": "view",
      "type": "function"
    },
    {
      "inputs": [
        {
          "internalType": "uint256",
          "name": "tokenId",
          "type": "uint256"
        }
      ],
      "name": "tokenURI",
      "outputs": [
        {
          "internalType": "string",
          "name": "",
          "type": "string"
        }
      ],
      "stateMutability": "view",
      "type": "function"
    },
    {
      "inputs": [],
      "name": "totalSupply",
      "outputs": [
        {
          "internalType": "uint256",
          "name": "",
          "type": "uint256"
        }
      ],
      "stateMutability": "view",
      "type": "function"
    },
    {
      "inputs": [
        {
          "internalType": "uint256",
          "name": "id",
          "type": "uint256"
        }
      ],
      "name": "totalSupply",
      "outputs": [
        {
          "internalType": "uint256",
          "name": "",
          "type": "uint256"
        }
      ],
      "stateMutability": "view",
      "type": "function"
    },
    {
      "inputs": [
        {
          "internalType": "address",
          "name": "newOwner",
          "type": "address"
        }
      ],
      "name": "transferOwnership",
      "outputs": [],
      "stateMutability": "nonpayable",
      "type": "function"
    },
    {
      "inputs": [
        {
          "internalType": "uint256",
          "name": "",
          "type": "uint256"
        }
      ],
      "name": "uri",
      "outputs": [
        {
          "internalType": "string",
          "name": "",
          "type": "string"
        }
      ],
      "stateMutability": "view",
      "type": "function"
    }
  ],
  "bytecode": "0x6080604052346109cc57614be080380380610019816109f0565b9283398101906020818303126109cc578051906001600160401b0382116109cc570181601f820112156109cc578051906001600160401b0382116106865761006a601f8301601f19166020016109f0565b92828452602083830101116109cc5760005b8281106109b757600083850160200152835184906001600160401b03811161068657600254600181811c911680156109ad575b602082101461074157601f811161095e575b50806020601f82116001146108f8576000916108ed575b508160011b916000199060031b1c1916176002555b33156108d75760058054336001600160a01b0319821681179092556001600160a01b03167f8be0079c531659141344cd1fd0a4f28419497f9722a3daafe3b4186f6b6457e0600080a380516001600160401b03811161068657600654600181811c911680156108cd575b602082101461074157601f811161087e575b50602091601f821160011461081a5791819260009261080f575b50508160011b916000199060031b1c1916176006555b604051608081016001600160401b03811182821017610686576040526020906101c1826109f0565b60008152815281810190600082526040810160008152606082019060008252600c5468010000000000000000811015610686576001810180600c5581101561067057600c600052856000209060021b0192519384519460018060401b038611610686578454600181811c91168015610805575b8882101461074157601f81116107d5575b508690601f871160011461076c5795809160039697600092610761575b50508160011b9160001990871b1c19161785555b5160018501555160028401555191015560405160a081016001600160401b0381118282101761068657604052600081526102af826109f0565b90600082528281019182526040810190600082526060810160008152608082019260008452600b5468010000000000000000811015610686576001810180600b5581101561067057600b6000908152879020935160059190910290930180546001600160a01b0319166001600160a01b039490941693909317835593518051949060018401906001600160401b038711610686578154600181811c91168015610757575b8982101461074157601f8111610711575b508790601f88116001146106a7579680916004979860009261069c575b50508160011b916000199060031b1c19161790555b516002830155516003820155019051151560ff801983541691161790556103bb6109d1565b600081526000828201526103cd6109d1565b600080825283820152604051919060c083016001600160401b0381118482101761068657604052600083528383019060008252610409856109f0565b926000845260408501938452606085019081526080850191825260a085019360008552600d5468010000000000000000811015610686576001810180600d5581101561067057600d600052600788600020910201955193600385101561065a5760009460ff8019895416911617875551600187015560028601905180519060018060401b038211610646578254600181811c9116801561063c575b8a821014610628579081601f8493116105ef575b508990601f831160011461058957879261057e575b50508160011b916000199060031b1c19161790559491945b51855b6002811061056057505051938091815b6002811061053a576005860184905584516006870180546001600160a01b0319166001600160a01b03929092169190911790556040516141b39081610a2d8239f35b86519682019660ff600383901b81811b19909616911690941b93909317926001016104f8565b81516001600160a01b031686820160030155908301906001016104e8565b0151905089806104cd565b8488528a88209250601f198416885b8c8282106105d95750509084600195949392106105c0575b505050811b0190559491946104e5565b015160001960f88460031b161c191690558980806105b0565b6001859682939686015181550195019301610598565b610618908589528b8920601f850160051c8101918d861061061e575b601f0160051c0190610a15565b8a6104b8565b909150819061060b565b634e487b7160e01b87526022600452602487fd5b90607f16906104a4565b634e487b7160e01b86526041600452602486fd5b634e487b7160e01b600052602160045260246000fd5b634e487b7160e01b600052603260045260246000fd5b634e487b7160e01b600052604160045260246000fd5b015190508980610381565b90601f1988169183600052896000209260005b8b8282106106fb57505091600193918a60049a9b94106106e2575b505050811b019055610396565b015160001960f88460031b161c191690558980806106d5565b60018596829396860151815501950193016106ba565b61073b908360005289600020601f8a0160051c8101918b8b1061061e57601f0160051c0190610a15565b88610364565b634e487b7160e01b600052602260045260246000fd5b90607f1690610353565b015190508880610262565b90601f1987169186600052886000209260005b8a8282106107bf5750509160019391896003999a94106107a7575b505050811b018555610276565b015160001983891b60f8161c1916905588808061079a565b600185968293968601518155019501930161077f565b6107ff908660005288600020601f890160051c8101918a8a1061061e57601f0160051c0190610a15565b87610245565b90607f1690610234565b015190508280610183565b601f198216926006600052806000209160005b8581106108665750836001951061084d575b505050811b01600655610199565b015160001960f88460031b161c1916905582808061083f565b9192602060018192868501518155019401920161082d565b60066000526108c7907ff652222313e28459528d920b65115c16c04f3efc82aaedc97be59f3f377c0d3f601f840160051c8101916020851061061e57601f0160051c0190610a15565b82610169565b90607f1690610157565b631e4fbdf760e01b600052600060045260246000fd5b9050820151836100d8565b600260009081528181209250601f198416905b8181106109465750908360019493921061092d575b5050811b016002556100ed565b84015160001960f88460031b161c191690558380610920565b9192602060018192868901518155019401920161090b565b60026000526109a7907f405787fa12a823e0f2b7631cc41b3ba8828b3321ca811111fa75cd3aa3bb5ace601f840160051c8101916020851061061e57601f0160051c0190610a15565b826100c1565b90607f16906100af565b8060208092840101518282870101520161007c565b600080fd5b60408051919082016001600160401b0381118382101761068657604052565b6040519190601f01601f191682016001600160401b0381118382101761068657604052565b818110610a20575050565b60008155600101610a1556fe6080604052600436101561001257600080fd5b60003560e01c8062fdd58e14610306578063015a37921461030157806301ffc9a7146102fc57806302fe5305146102f75780630677aa4e146102f257806309c95e10146102ed5780630daea2cd146102e85780630e89341c146102e357806310898e4c146102de5780631107ae3d146102d957806316801d17146102d457806318160ddd146102cf5780632711162e146102ca5780632ca04522146102c55780632eb2c2d6146102c05780633835e2b5146102bb5780634b114691146102b65780634e1273f4146102b15780634f558e79146102ac5780635c12cd4b146102a75780635c93fc3d146102a2578063606d2e961461029d5780636c0360eb14610298578063703730a514610293578063715018a61461028e578063845f433b146102895780638da5cb5b14610284578063996d7bea1461027f5780639b09cc871461027a5780639e4ecd11146102755780639ec40aa314610270578063a1b4f57c1461026b578063a22cb46514610266578063ba27495614610261578063bd85b0391461025c578063bf034b6914610257578063bf103a4d14610252578063c4e41b221461024d578063c87b56dd14610248578063d2198cc514610243578063de96cefc1461023e578063e985e9c514610239578063efa1c48214610234578063f1da73391461022f578063f242432a1461022a578063f2fde38b146102255763f71d96cb1461022057600080fd5b611ee0565b611e1b565b611d0c565b611cf0565b611c62565b611ba5565b611b89565b611b6d565b611a7b565b611a5d565b611a3a565b6119cc565b611965565b611759565b6116a0565b611533565b61151d565b611501565b6114cc565b61141b565b6113f2565b6112d6565b611279565b61125d565b6111b5565b61111e565b610f7a565b610ee2565b610e6c565b610dad565b610d2e565b610d16565b610c4d565b610afb565b610ac1565b610aa3565b610a76565b610961565b610929565b610850565b610823565b6107f6565b6107da565b6106e2565b61051d565b610479565b610350565b600435906001600160a01b038216820361032157565b600080fd5b602435906001600160a01b038216820361032157565b35906001600160a01b038216820361032157565b3461032157604036600319011261032157602061039461036e61030b565b6024356000526000835260406000209060018060a01b0316600052602052604060002090565b54604051908152f35b60005b8381106103b05750506000910152565b81810151838201526020016103a0565b906020916103d98151809281855285808601910161039d565b601f01601f1916010190565b906060806103fc84516080855260808501906103c0565b936020810151602085015260408101516040850152015191015290565b602081016020825282518091526040820191602060408360051b8301019401926000915b83831061044c57505050505090565b909192939460208061046a600193603f1986820301875289516103e5565b9701930193019193929061043d565b3461032157600036600319011261032157600c5461049681610bd9565b906104a460405192836105f7565b808252600c60009081527fdf6966c971051c3d54ec59162606531493a51404a002842f56009d7e5cf4a8c7602084015b8383106104ed57604051806104e98782610419565b0390f35b600460206001926104fd85611f66565b8152019201920191906104d4565b6001600160e01b031981160361032157565b3461032157602036600319011261032157602060043561053c8161050b565b63ffffffff60e01b16636cdb3d1360e11b811490811561057a575b8115610569575b506040519015158152f35b6301ffc9a760e01b1490503861055e565b6303a24d0760e21b81149150610557565b634e487b7160e01b600052604160045260246000fd5b608081019081106001600160401b038211176105bc57604052565b61058b565b60c081019081106001600160401b038211176105bc57604052565b60a081019081106001600160401b038211176105bc57604052565b90601f801991011681019081106001600160401b038211176105bc57604052565b6040519061062760c0836105f7565b565b6040519061062760a0836105f7565b604051906106276080836105f7565b9061062760405192836105f7565b6001600160401b0381116105bc57601f01601f191660200190565b81601f820112156103215760208135910161068a82610655565b9261069860405194856105f7565b828452828201116103215781600092602092838601378301015290565b602060031982011261032157600435906001600160401b038211610321576106df91600401610670565b90565b34610321576106f0366106b5565b6106f8612dc8565b80516001600160401b0381116105bc5761071c81610717600254611042565b6122e4565b602091601f821160011461075c5761074c9260009183610751575b50508160011b916000199060031b1c19161790565b600255005b015190503880610737565b6002600052601f198216927f405787fa12a823e0f2b7631cc41b3ba8828b3321ca811111fa75cd3aa3bb5ace9160005b8581106107c2575083600195106107a9575b505050811b01600255005b015160001960f88460031b161c1916905538808061079e565b9192602060018192868501518155019401920161078c565b3461032157600036600319011261032157602060405160038152f35b3461032157602036600319011261032157602061081961081461030b565b611f9f565b6040519015158152f35b34610321576000366003190112610321576020604051600a8152f35b9060206106df9281815201906103c0565b3461032157602036600319011261032157604051600060025461087281611042565b808452906001811690811561090557506001146108a6575b6104e98361089a818503826105f7565b6040519182918261083f565b600260009081527f405787fa12a823e0f2b7631cc41b3ba8828b3321ca811111fa75cd3aa3bb5ace939250905b8082106108eb5750909150810160200161089a61088a565b9192600181602092548385880101520191019092916108d3565b60ff191660208086019190915291151560051b8401909101915061089a905061088a565b34610321576020366003190112610321576104e961094d61094861030b565b611fea565b6040519182916020835260208301906103e5565b34610321576020610819610974366106b5565b612069565b6003111561098357565b634e487b7160e01b600052602160045260246000fd5b9060038210156109835752565b906000905b600282106109b857505050565b60208060019260ff8651168152019301910190916109ab565b906109dd818351610999565b60208201516020820152610a02604083015161010060408401526101008301906103c0565b916060810151606083016000905b60028210610a45575050509060e060a083610a3560806106df960151838601906109a6565b01516001600160a01b0316910152565b82516001600160a01b031681526020928301926001929092019101610a10565b9060206106df9281815201906109d1565b34610321576104e9610a8f610a8a366106b5565b6121b5565b6040519182916020835260208301906109d1565b34610321576000366003190112610321576020600454604051908152f35b34610321576020366003190112610321576001600160a01b03610ae261030b565b1660005260096020526020604060002054604051908152f35b34610321576104e9610b0c366106b5565b610b1461207c565b50610b26610b2133611f9f565b612224565b610b3e610b39610b3583612069565b1590565b612270565b6040516020810190610b6281610b54858561083f565b03601f1981018352826105f7565b51902090604090610b7282610647565b33815260006020820152610b8583610647565b906000825260006020830152610b99610618565b94600086526020860152828486015260608501526080840152600060a0840152610bc5600d5491610cf0565b55610bcf8261255e565b5191829182610a65565b6001600160401b0381116105bc5760051b60200190565b9080601f83011215610321578135610c0781610bd9565b92610c1560405194856105f7565b81845260208085019260051b82010192831161032157602001905b828210610c3d5750505090565b8135815260209182019101610c30565b346103215760a036600319011261032157610c6661030b565b610c6e610326565b906044356001600160401b03811161032157610c8e903690600401610bf0565b6064356001600160401b03811161032157610cad903690600401610bf0565b90608435936001600160401b03851161032157610cd1610cd7953690600401610670565b936125b4565b005b90610cec6020928281519485920161039d565b0190565b6020610d0991816040519382858094519384920161039d565b8101600a81520301902090565b34610321576020610394610d29366106b5565b610cf0565b34610321576020366003190112610321576001600160a01b03610d4f61030b565b1660005260086020526020604060002054604051908152f35b906020808351928381520192019060005b818110610d865750505090565b8251845260209384019390920191600101610d79565b9060206106df928181520190610d68565b34610321576040366003190112610321576004356001600160401b038111610321573660238201121561032157806004013590610de982610bd9565b91610df760405193846105f7565b8083526024602084019160051b8301019136831161032157602401905b828210610e5457836024356001600160401b038111610321576104e991610e42610e48923690600401610bf0565b90612625565b60405191829182610d9c565b60208091610e618461033c565b815201910190610e14565b3461032157602036600319011261032157600435600052600360205260206040600020541515604051908152f35b9060018060a01b038251168152608080610ec3602085015160a0602086015260a08501906103c0565b9360408101516040850152606081015160608501520151151591015290565b34610321576020366003190112610321576104e9610f06610f0161030b565b61272d565b604051918291602083526020830190610e9a565b602081016020825282518091526040820191602060408360051b8301019401926000915b838310610f4d57505050505090565b9091929394602080610f6b600193603f1986820301875289516109d1565b97019301930191939290610f3e565b3461032157600036600319011261032157600d54610f9781610bd9565b90610fa560405192836105f7565b808252600d60009081527fd7b6990105719101dabeb77144f2a3385c8033acd3af97e9423a695e81ad1eb5602084015b838310610fea57604051806104e98782610f1a565b60076020600192610ffa856120fb565b815201920192019190610fd5565b634e487b7160e01b600052603260045260246000fd5b600d5481101561103d57600d6000526007602060002091020190600090565b611008565b90600182811c92168015611072575b602083101461105c57565b634e487b7160e01b600052602260045260246000fd5b91607f1691611051565b906040519182600082549261109084611042565b80845293600181169081156110fc57506001146110b5575b50610627925003836105f7565b90506000929192526020600020906000915b8183106110e057505090602061062792820101386110a8565b60209193508060019154838589010152019101909184926110c7565b90506020925061062794915060ff191682840152151560051b820101386110a8565b3461032157602036600319011261032157600435600d548110156103215761114861117f9161101e565b5060ff815416906111956001820154916111646002820161107c565b90600660018060a01b03910154169260405195868096610999565b60208501526080604085015260808401906103c0565b9060608301520390f35b634e487b7160e01b600052600060045260246000fd5b346103215760003660031901126103215760405160006006546111d781611042565b808452906001811690811561090557506001146111fe576104e98361089a818503826105f7565b600660009081527ff652222313e28459528d920b65115c16c04f3efc82aaedc97be59f3f377c0d3f939250905b8082106112435750909150810160200161089a61088a565b91926001816020925483858801015201910190929161122b565b3461032157600036600319011261032157602060405160028152f35b3461032157600036600319011261032157611292612dc8565b600580546001600160a01b031981169091556000906001600160a01b03167f8be0079c531659141344cd1fd0a4f28419497f9722a3daafe3b4186f6b6457e08280a3005b34610321576040366003190112610321576004356001600160401b03811161032157611306903690600401610670565b6024356001600160401b03811161032157611325903690600401610670565b61132e33611f9f565b6113b15761137c90600b54611367611344610629565b338152856020820152600a604082015260196060820152600060808201526127ca565b33600090815260086020526040902055612984565b7f81ef79d1cda814a60c0fc60792e648a06d9c6bae67176346d1cc8b63030bfccd604051806113ac33948261083f565b0390a2005b60405162461bcd60e51b8152602060048201526019602482015278141b185e595c88185b1c9958591e481c9959da5cdd195c9959603a1b6044820152606490fd5b34610321576000366003190112610321576005546040516001600160a01b039091168152602090f35b346103215761142c610a8a366106b5565b606081018051519091906001600160a01b0316331480156114ae575b61145190612938565b8151513390611470906001600160a01b03165b6001600160a01b031690565b0361149857611493611486610cd7935160200190565b516001600160a01b031690565b612e34565b905151610cd791906001600160a01b0316612e34565b50611451336114c4611464611486865160200190565b149050611448565b346103215760806114df610a8a366106b5565b015180516020918201516040805160ff93841681529290911692820192909252f35b3461032157600036600319011261032157602060405160058152f35b3461032157610cd761152e366106b5565b612984565b34610321576104e9611544366106b5565b61154c61207c565b50611556816121b5565b90611574825161156581610979565b61156e81610979565b15612b2b565b6060820180515190916115e9918491906115a2906001600160a01b03166001600160a01b0316331415612b71565b6115c26115bd610b3560806115b63361272d565b0151151590565b612bc7565b600182526115e4336115d5865160200190565b6001600160a01b039091169052565b613125565b805151611634906004906116259061161f906001600160a01b03165b6001600160a01b0316600090815260086020526040902090565b54611ea5565b5001805460ff19166001179055565b61164d600461162561161f611605611486865160200190565b60408201519051516001600160a01b03908116167f024187b16c217a79f8d8e6252b542ec6e278fa91304acd9cfd866f2bbf00bd086040518061169133958261083f565b0390a360405191829182610a65565b34610321576040366003190112610321576116b961030b565b6024359081151590818303610321576001600160a01b038116928315611744576117056117169233600052600160205260406000209060018060a01b0316600052602052604060002090565b9060ff801983541691151516179055565b6040519081527f17307eab39ab6107e8899845ad3d59bd9653f200f220920489ca2b5937696c3160203392a3005b62ced3e160e81b600052600060045260246000fd5b346103215760403660031901126103215760043560ff81168103610321576024356001600160401b03811161032157611799611879913690600401610670565b80926117a4826121b5565b6117c3600182516117b481610979565b6117bd81610979565b14612c07565b6117e3600282516117d381610979565b6117dc81610979565b1415612c83565b61185360ff61184c6118456080606086019561180a611464885160018060a01b0390511690565b33148015611947575b61181c90612cca565b01518551513390611835906001600160a01b0316611464565b0361193f578360005b1690612927565b5160ff1690565b1615612d16565b51513390611869906001600160a01b0316611464565b036119365760ff60005b166131f5565b6118c7611896608061188a846121b5565b0180515161189c9060ff165b60ff1690565b611923576118bb6118966118456118b36000612d62565b935160200190565b61191b57600090612d73565b600181036119145760015b6118db83612d87565b901515907f54b82b77e7ae55a8e6c9e89deba70c7191dea2a3b08ae647b380e9f981d6a0f8600080a31561190b57005b610cd790613312565b60006118d2565b600190612d73565b6118bb6118966118456118b36001612d62565b60ff6001611873565b83600161183e565b5061181c61195c6114646114868a5160200190565b33149050611813565b346103215760203660031901126103215760043560005260036020526020604060002054604051908152f35b600c5481101561103d57600c60005260206000209060021b0190600090565b805482101561103d5760005260206000209060021b0190600090565b3461032157602036600319011261032157600435600c54811015610321576119f6611a2691611991565b50611a008161107c565b9060018101549060036002820154910154906040519485946080865260808601906103c0565b926020850152604084015260608301520390f35b34610321576020366003190112610321576020610819611a5861030b565b612da7565b34610321576000366003190112610321576020600754604051908152f35b3461032157602036600319011261032157611a97600435613449565b6040516000600654611aa881611042565b9060018116908115611b4b5750600114611af5575b5081610b54611ae46104e995611ade61089a95600190602f60f81b81520190565b90610cd9565b64173539b7b760d91b815260050190565b600660009081529091507ff652222313e28459528d920b65115c16c04f3efc82aaedc97be59f3f377c0d3f5b828210611b35575050810160200181611abd565b6001816020925483858801015201910190611b21565b60ff191660208581019190915282151590920284019091019150829050611abd565b3461032157600036600319011261032157602060405160008152f35b3461032157600036600319011261032157602060405160018152f35b3461032157604036600319011261032157602060ff611bf6611bc561030b565b611bcd610326565b6001600160a01b0391821660009081526001865260408082209290931681526020919091522090565b54166040519015158152f35b602081016020825282518091526040820191602060408360051b8301019401926000915b838310611c3557505050505090565b9091929394602080611c53600193603f198682030187528951610e9a565b97019301930191939290611c26565b3461032157600036600319011261032157600b54611c7f81610bd9565b90611c8d60405192836105f7565b808252600b60009081527f0175b7a638427703f0dbe7bb9bbf987a2551717b34e79f33b5b1008d1fa01db9602084015b838310611cd257604051806104e98782611c02565b60056020600192611ce2856126dd565b815201920192019190611cbd565b3461032157600036600319011261032157602060405160048152f35b346103215760a036600319011261032157611d2561030b565b611d2d610326565b60443590606435926084356001600160401b03811161032157611d54903690600401610670565b926001600160a01b0382163381141580611df7575b611ddf576001600160a01b03841615611dc95715611db457610cd794611dac60405192600184526020840152604083019160018352606084015260808301604052565b9290916134ff565b626a0d4560e21b600052600060045260246000fd5b632bfa23e760e11b600052600060045260246000fd5b63711bec9160e11b6000523360045260245260446000fd5b50600081815260016020908152604080832033845290915290205460ff1615611d69565b3461032157602036600319011261032157611e3461030b565b611e3c612dc8565b6001600160a01b03168015611e8f57600580546001600160a01b0319811683179091556001600160a01b03167f8be0079c531659141344cd1fd0a4f28419497f9722a3daafe3b4186f6b6457e0600080a3005b631e4fbdf760e01b600052600060045260246000fd5b600b5481101561103d57600b6000526005602060002091020190600090565b805482101561103d576000526005602060002091020190600090565b3461032157602036600319011261032157600435600b5481101561032157611f0790611ea5565b5080546001600160a01b0316611f1f6001830161107c565b9160028101549060ff600460038301549201541690611f50604051958695865260a0602087015260a08601906103c0565b9260408501526060840152151560808301520390f35b90604051611f73816105a1565b606060038294611f828161107c565b845260018101546020850152600281015460408501520154910152565b6001600160a01b0316600090815260086020526040902054611fc057600090565b600190565b60405190611fd2826105a1565b60006060838181528260208201528260408201520152565b611ff2611fc5565b50611ffc81612da7565b156120285760018060a01b031660005260096020526106df612022604060002054611991565b50611f66565b60405162461bcd60e51b815260206004820152601960248201527847616d6520746f6b656e20646f65736e27742065786973742160381b6044820152606490fd5b61207290610cf0565b54611fc057600090565b60405190612089826105c1565b600060a08382815282602082015260606040820152604080516120ac82826105f7565b8136823760608301528051906120c281836105f7565b36823760808201520152565b60038210156109835752565b9060ff6040519254818116845260081c1660208301526106276040836105f7565b90604051612108816105c1565b809261211860ff825416836120ce565b6001810154602083015261212e6002820161107c565b60408301526040518060038301906000905b60028210612195575050506121876006610627949383612163604060a0966105f7565b6060860152612174600582016120da565b608086015201546001600160a01b031690565b6001600160a01b0316910152565b82546001600160a01b031681526001928301929190910190602001612140565b6121bd61207c565b506121c781612069565b156121e7576121e16121db6106df92610cf0565b5461101e565b506120fb565b60405162461bcd60e51b8152602060048201526015602482015274426174746c6520646f65736e27742065786973742160581b6044820152606490fd5b1561222b57565b60405162461bcd60e51b815260206004820152601c60248201527f506c6561736520526567697374657220506c61796572204669727374000000006044820152606490fd5b1561227757565b60405162461bcd60e51b8152602060048201526016602482015275426174746c6520616c7265616479206578697374732160501b6044820152606490fd5b9060038110156109835760ff80198354169116179055565b8181106122d8575050565b600081556001016122cd565b90601f82116122f1575050565b6106279160026000526020600020906020601f840160051c8301931061231f575b601f0160051c01906122cd565b9091508190612312565b9190601f811161233857505050565b610627926000526020600020906020601f840160051c8301931061231f57601f0160051c01906122cd565b91909182516001600160401b0381116105bc5761238a816123848454611042565b84612329565b6020601f82116001146123bf5781906123bb9394956000926107515750508160011b916000199060031b1c19161790565b9055565b601f198216906123d484600052602060002090565b9160005b818110612410575095836001959697106123f7575b505050811b019055565b015160001960f88460031b161c191690553880806123ed565b9192602060018192868b0151815501940192016123d8565b634e487b7160e01b600052601160045260246000fd5b90600a820291808304600a149015171561245457565b612428565b9060005b6002811061246a57505050565b81516001600160a01b03168184015560209091019060010161245d565b60009160005b6002811061249a57505055565b909260206124bf6001928460ff885116919060ff809160031b9316831b921b19161790565b9401910161248d565b9061255957815160038110156109835761253860a0610627946124ed600694866122b5565b60208101516001860155612508604082015160028701612363565b612519606082015160038701612459565b61252a608082015160058701612487565b01516001600160a01b031690565b910180546001600160a01b0319166001600160a01b03909216919091179055565b61119f565b600d5490600160401b8210156105bc5760018201600d55600d5482101561103d57600d6000908152610627926007027fd7b6990105719101dabeb77144f2a3385c8033acd3af97e9423a695e81ad1eb5016124c8565b939291906001600160a01b03851633811415806125ed575b611ddf576001600160a01b03821615611dc95715611db457610627946134ff565b50600081815260016020908152604080832033845290915290205460ff16156125cc565b805182101561103d5760209160051b010190565b919091805183518082036126c657505080519061264182610bd9565b9161264f60405193846105f7565b80835261265e601f1991610bd9565b0136602084013760005b81518110156126bf57806126ae60019260051b60208082870101519189010151906000918252602082815260408084206001600160a01b03909316845291905290205490565b6126b88286612611565b5201612668565b5090925050565b635b05999160e01b60005260045260245260446000fd5b906040516126ea816105dc565b608060ff6004839560018060a01b03815416855261270a6001820161107c565b602086015260028101546040860152600381015460608601520154161515910152565b6000608060405161273d816105dc565b82815260606020820152826040820152826060820152015261275e81611f9f565b1561278d576001600160a01b031660009081526008602052604090206106df906127879061161f565b506126dd565b60405162461bcd60e51b8152602060048201526015602482015274506c6179657220646f65736e27742065786973742160581b6044820152606490fd5b600b54600160401b8110156105bc578060016127eb9201600b55600b611ec4565b91909161255957805182546001600160a01b0319166001600160a01b03919091161782556001820160208201518051906001600160401b0382116105bc5761283d826128378554611042565b85612329565b602090601f83116001146128ac579360049361287b84612899956080956106279a996000926107515750508160011b916000199060031b1c19161790565b90555b60408101516002860155606081015160038601550151151590565b91019060ff801983541691151516179055565b90601f198316916128c285600052602060002090565b9260005b81811061290f5750846080946106279998946004989461289998600195106128f6575b505050811b01905561287e565b015160001960f88460031b161c191690553880806128e9565b929360206001819287860151815501950193016128c6565b90600281101561103d5760051b0190565b1561293f57565b60405162461bcd60e51b815260206004820152601b60248201527f596f7520617265206e6f7420696e207468697320626174746c652100000000006044820152606490fd5b608061298f3361272d565b0151612aee576129a1610b2133611f9f565b6129a9611fc5565b506129b333613643565b6129bc81612f96565b612a096129ff61189660405160208101906129f581610b54334286909160349282526001600160601b03199060601b1660208201520190565b5190206064900690565b60ff600691160690565b9160ff831615612ab9575b612a877fca8ab07e9ed17d119729fc652dd24df9d8430ca862dda4631925b5b4b99da3629394612a42610638565b90815260ff861690816020820152836040820152846060820152612a68600c5491612fe0565b33600090815260096020526040902055612a806130f5565b903361368c565b612a9a612a95600754613116565b600755565b6040805160ff95909516855260208501919091528301523391606090a2565b612a87612ae67fca8ab07e9ed17d119729fc652dd24df9d8430ca862dda4631925b5b4b99da36294612fcf565b935050612a14565b60405162461bcd60e51b8152602060048201526015602482015274506c6179657220697320696e206120626174746c6560581b6044820152606490fd5b15612b3257565b60405162461bcd60e51b8152602060048201526017602482015276426174746c6520616c726561647920737461727465642160481b6044820152606490fd5b15612b7857565b60405162461bcd60e51b815260206004820152602160248201527f4f6e6c7920706c617965722074776f2063616e206a6f696e206120626174746c6044820152606560f81b6064820152608490fd5b15612bce57565b60405162461bcd60e51b8152602060048201526011602482015270416c726561647920696e20626174746c6560781b6044820152606490fd5b15612c0e57565b60405162461bcd60e51b815260206004820152604160248201527f426174746c65206e6f7420737461727465642e20506c656173652074656c6c2060448201527f616e6f7468657220706c6179657220746f206a6f696e2074686520626174746c6064820152606560f81b608482015260a490fd5b15612c8a57565b60405162461bcd60e51b815260206004820152601860248201527710985d1d1b19481a185cc8185b1c9958591e48195b99195960421b6044820152606490fd5b15612cd157565b60405162461bcd60e51b815260206004820152601a60248201527f596f7520617265206e6f7420696e207468697320626174746c650000000000006044820152606490fd5b15612d1d57565b60405162461bcd60e51b815260206004820152601d60248201527f596f75206861766520616c7265616479206d6164652061206d6f7665210000006044820152606490fd5b60ff166002039060ff821161245457565b9060ff8091169116039060ff821161245457565b612d9f9060206040519282848094519384920161039d565b810103902090565b6001600160a01b0316600090815260096020526040902054611fc057600090565b6005546001600160a01b03163303612ddc57565b63118cdaa760e01b6000523360045260246000fd5b15612df857565b60405162461bcd60e51b815260206004820152601460248201527310985d1d1b1948185b1c9958591e48195b99195960621b6044820152606490fd5b612e3c61207c565b50612e5d60028351612e4d81610979565b612e5681610979565b1415612df1565b600282526001600160a01b03811660a08301526040820190612e80838351613125565b7fae6e5eafb6cd1cb4b139e7a0b9140aa182ee7d50e99f50d660156f79212acbc0612f7e60608501612f2b6002612f15612ec5611605855160018060a01b0390511690565b54612f1d83612f15612ede6116056114868a5160200190565b5493612efa6004612eee83611ea5565b5001805460ff19169055565b612f106003612f0883611ea5565b500160199055565b611ea5565b5001600a9055565b612efa6004612eee83611ea5565b805151612f40906001600160a01b0316611464565b6001600160a01b03909416936000908503612f84575051612f6390602001611486565b935b516040516001600160a01b03909516949182918261083f565b0390a390565b5051516001600160a01b031693612f65565b600a0390600a821161245457565b60001981019190821161245457565b60021981019190821161245457565b9190820391821161245457565b60ff1660ff81146124545760010190565b600c54600160401b8110156105bc578060016130019201600c55600c6119b0565b9190916125595780518051906001600160401b0382116105bc5761302f826130298654611042565b86612329565b602090601f8311600114613083578260609360039593613065936000926107515750508160011b916000199060031b1c19161790565b84555b60208101516001850155604081015160028501550151910155565b90601f1983169161309986600052602060002090565b9260005b8181106130dd575092600192859260609660039896106130c5575b505050811b018455613068565b015160001983881b60f8161c191690553880806130b8565b9293602060018192878601518155019501930161309d565b604051906131046040836105f7565b600382526203078360ec1b6020830152565b60001981146124545760010190565b9061312f82612069565b15613149576131436121db61062793610cf0565b906124c8565b60405162461bcd60e51b815260206004820152601460248201527310985d1d1b1948191bd95cdb89dd08195e1a5cdd60621b6044820152606490fd5b1561318c57565b60405162461bcd60e51b815260206004820152602260248201527f4d616e61206e6f742073756666696369656e7420666f722061747461636b696e604482015261672160f01b6064820152608490fd5b919091600283101561103d57601f908360051c01921690565b9160ff82169260018414809481156132b1575b501561326c57600561323e6121db613245946106279760001461326257610d29600360406132353361272d565b01511015613185565b50016131dc565b908054909260ff60039390931b83811b199092169216901b179055565b610d296001613185565b60405162461bcd60e51b815260206004820152601f60248201527f43686f6963652073686f756c64206265206569746865722031206f72203221006044820152606490fd5b600291501438613208565b156132c357565b60405162461bcd60e51b815260206004820152602160248201527f506c6179657273207374696c6c206e65656420746f206d616b652061206d6f766044820152606560f81b6064820152608490fd5b61331b906121b5565b606081018051516001600160a01b031633149081156133dd575b501561338457806133656080610627930160ff613355825160ff90511690565b161515908161336a575b506132bc565b61379e565b5161337c915061189690602001611845565b15153861335f565b60405162461bcd60e51b815260206004820152602b60248201527f4f6e6c7920706c617965727320696e207468697320626174746c652063616e2060448201526a6d616b652061206d6f766560a81b6064820152608490fd5b51602001516001600160a01b03163314905038613335565b906133ff82610655565b61340c60405191826105f7565b828152809261341d601f1991610655565b0190602036910137565b60ff166030019060ff821161245457565b90815181101561103d570160200190565b80156134df5780816000925b6134c4575080613464836133f5565b92905b61347057505090565b61347990612fa4565b906134af61349f61349a611896600a8504946134948661243e565b90612fc2565b613427565b60f81b6001600160f81b03191690565b60001a6134bc8385613438565b539081613467565b916134d16134d991613116565b92600a900490565b80613455565b506040516134ee6040826105f7565b60018152600360fc1b602082015290565b9193929061350f82868386613f80565b6001600160a01b038316156135da575b6001600160a01b0381161580613574575b1561353d575b5050505050565b8451600103613563576020806135599601519201519233613ebb565b3880808080613536565b61356f94919233613d86565b613559565b94936000939091845b86518610156135c2576001906135938787612611565b51906135b36135a2898b612611565b516000526003602052604060002090565b8281540390550195019461357d565b6135d59193969792955060045403600455565b613530565b9392600092835b85518510156136235761361b6001916135fa8787612611565b51906136096135a2898b612611565b613614838254613759565b9055613759565b9401936135e1565b61363e9194506136399096929596600454613759565b600455565b61351f565b600a9060405160208101914483524260408301526001600160601b03199060601b166060820152605481526136796074826105f7565b5190200680156136865790565b50600590565b92906001600160a01b03841615611dc95760016136c660405192600184526020840152604083019160018352606084015260808301604052565b90916136d58284876000613f80565b600094855b845187101561370a576137026001916136f38987612611565b51906136096135a28b8a612611565b9601956136da565b61371f91959492965061363990600454613759565b805160010361373f57906020806106279593015191015191600033613ebb565b61062793600033613d86565b906003820180921161245457565b9190820180921161245457565b919060408301926000905b6002821061377e57505050565b82516001600160a01b031681526020928301926001929092019101613771565b61396f60608201916138e960006139666137c3611605875160018060a01b0390511690565b546080850190876137d7835160ff90511690565b8151519092906060906137f2906001600160a01b031661272d565b015182515160409061380c906001600160a01b0316611fea565b015190613863611605611486606061382f610948895160018060a01b0390511690565b01519661383a610629565b96875260ff60208801991689526040870194855260608701958652608087019788525160200190565b54938c613874611845895160200190565b6060613887610f01611486855160200190565b015191604061389d610948611486845160200190565b01519360606138b3610948611486855160200190565b0151906138be610629565b998a5260ff60208b019416845260408a0194855260608a0195865260808a0191825260409e8f610647565b938e85528e6020860152849b5160018114808091613ce3575b15613ae457505050505050508351905111158914613a345750508a515160008051602061415e833981519152946139589450925061394b915089906001600160a01b0316612e34565b505b865191829182613766565b0390a1828151525160200190565b52810151613125565b8051516139cf9061398d906001600160a01b0316613643565b613643565b82515181906002906139c7906139c1906001600160a01b03165b6001600160a01b0316600090815260096020526040902090565b54611991565b500155612f96565b8151516003906139eb906139c1906001600160a01b03166139a7565b5001556003613a2f6139c16139a7611486613a27613a10613988611486895160200190565b8060026139c76139c16139a76114868d5160200190565b955160200190565b500155565b5190518110158814613a6f575050505061395860008051602061415e83398151915291613a69886114936114868d5160200190565b5061394d565b60029450828592613ab192613a976003613a8d613abd999851611ea5565b5001918254612fc2565b905551613aa96003613a8d8751611ea5565b905551611ea5565b5001613aa98154612fb3565b5001613ac98154612fb3565b905560008051602061415e833981519152613958885161394d565b9160008051602061415e8339815191529d9b959991836139589e9a95949c9996989c90613cd8575b15613bc4575050505050613b238151845190613759565b935195848710158e14613b4f575151613a6997508f96506001600160a01b031694506114939350505050565b9251600297613b81978996613ab19693821015613b945750505050515b6003613b788651611ea5565b50015551611ea5565b5001613b8d815461374b565b905561394d565b613bbf939450613baa613bb29261148692612fc2565b945160200190565b6001600160a01b03169052565b613b6c565b91945092965060029195501490818092613ccd575b8f14613c7f575050613bee8151845190613759565b935195848710158e14613c175751613a6997508f96506114939550602001935061148692505050565b9251600297613c4c978996613c409693821015613c585750505050515b6003613b788351611ea5565b5001613aa9815461374b565b5001613b8d8154612fb3565b613c7a939450613bb291613c6b91612fc2565b9351516001600160a01b031690565b613c34565b94509496505093505081613cc1575b50613c9b575b505061394d565b60029182613c40613cac9351611ea5565b5001613cb8815461374b565b90553880613c94565b60029150511438613c8e565b506001815114613bd9565b506002825114613b0c565b506001835114613902565b9081602091031261032157516106df8161050b565b6001600160a01b0391821681529116602082015260a0604082018190526106df9491939192613d489291613d3a9190860190610d68565b908482036060860152610d68565b9160808184039101526103c0565b3d15613d81573d90613d6782610655565b91613d7560405193846105f7565b82523d6000602084013e565b606090565b9091949293853b613d9a575b505050505050565b602093613dbc91604051968795869563bc197c8160e01b875260048701613d03565b038160006001600160a01b0387165af160009181613e51575b50613e115750613de3613d56565b8051919082613e0a57632bfa23e760e11b6000526001600160a01b03821660045260246000fd5b9050602001fd5b6001600160e01b0319166343e6837f60e01b01613e345750388080808080613d92565b632bfa23e760e11b6000526001600160a01b031660045260246000fd5b613e7491925060203d602011613e7b575b613e6c81836105f7565b810190613cee565b9038613dd5565b503d613e62565b6001600160a01b039182168152911660208201526040810191909152606081019190915260a0608082018190526106df929101906103c0565b9091949293853b613ece57505050505050565b602093613ef091604051968795869563f23a6e6160e01b875260048701613e82565b038160006001600160a01b0387165af160009181613f3a575b50613f175750613de3613d56565b6001600160e01b031916630dc5919f60e01b01613e345750388080808080613d92565b613f5491925060203d602011613e7b57613e6c81836105f7565b9038613f09565b9091613f726106df93604084526040840190610d68565b916020818403910152610d68565b939291805183519081810361414657505060005b81518110156140a0578060051b90602080838501015192860101518460018060a01b03891661401d575b6001936001600160a01b038216613fd9575b50505001613f94565b61401391613ff461400b926000526000602052604060002090565b9060018060a01b0316600052602052604060002090565b918254613759565b9055388481613fd0565b50909161403888613ff4836000526000602052604060002090565b54828110614069578291600194938792036140618b613ff4846000526000602052604060002090565b559350613fbe565b6040516303dee4c560e01b81526001600160a01b038a16600482015260248101919091526044810183905260648101829052608490fd5b508051939493919291600103614103576020908101519181015160408051938452918301526001600160a01b03928316939092169133917fc3d58168c5ae7397731d063d5bbf3d657854427343f4c083240f7aacaa2d0f6291819081015b0390a4565b6040516001600160a01b03938416949093169233927f4a39dc06d4c0dbc64b70af90fd698a233a518aa5d07e595d983b8c0526c8f7fb9282916140fe9183613f5b565b635b05999160e01b60005260045260245260446000fdfec6bf860cbc15f7020f73993a671f01bbb1831a8a7a12c126ca735eb632e75775a2646970667358221220e182a834a8bbce120b73cdfa17dcdf2f85b2d8dd71f4ef6f7a2167ad7623a04564736f6c634300081c0033",
  "linkReferences": {},
  "deployedLinkReferences": {}
}